:020000040000FA
:100000000C9462000C948A000C948A000C948A0070
:100010000C948A000C948A000C948A000C948A0038
:100020000C948A000C948A000C948A000C94771823
:100030000C948A000C948A000C948A000C948A0018
:100040000C940E170C948A000C94DC160C94B616C3
:100050000C948A000C948A000C948A000C948A00F8
:100060000C9458170C948A0000000000230026000E
:10007000290000000000240027002A0000000000E2
:10008000250028002B0004040404040404040202D4
:100090000202020203030303030301020408102007
:1000A0004080010204081020010204081020000012
:1000B0000008000201000003040700000000000027
:1000C0000000331911241FBECFEFD8E0DEBFCDBF33
:1000D00011E0A0E0B1E0E4E4F0E402C005900D928C
:1000E000A43DB107D9F726E0A4EDB1E001C01D920F
:1000F000A534B207E1F710E0C2E6D0E004C02197D2
:10010000FE010E94B01EC136D107C9F70E945A1ADB
:100110000C9420200C940000862FE091B603F091FF
:10012000B703309711F0BA0109940895862FE09132
:10013000B403F091B503309711F0BA010994089512
:10014000862FE091B203F091B303309711F0BA011A
:1001500009940895862FE091B003F091B103309790
:1001600011F0BA0109940895862FE091AE03F09141
:10017000AF03309711F0BA0109940895862FE091EA
:10018000AC03F091AD03309711F0BA0109940895D2
:100190000895862F642FE091B803F091B90330974A
:1001A00011F0A90109940895E091BA03F091BB03FD
:1001B000309709F009940895A091FC05B091FD05D0
:1001C000ED91FC9111970190F081E02D682FCD0108
:1001D0000994CF93DF9320913F0630914006C82FBA
:1001E000D0E02115310599F48F770E94DC008091D1
:1001F0003F069091400601969093400680933F06FB
:10020000CC0FCD2FCC1FDD0BC0933E061BC0CE0103
:1002100001C0880F2A95EAF78F7790913E06892BC7
:100220000E94DC0080913F06909140068630910547
:1002300061F4CE01959587950E94DC0010924006EE
:1002400010923F06DF91CF9108950196909340065A
:1002500080933F0628E030E0281B390B02C0D5957B
:10026000C7952A95E2F7D0CFCF93DF93FC01A08109
:10027000B181109701F1EC01ED91FC911197019082
:10028000F081E02D69EFCD01099588819981DC012C
:10029000ED91FC910190F081E02D62E0099588815B
:1002A0009981DC01ED91FC910190F081E02D65E0F8
:1002B000DF91CF910994DF91CF9108951F93CF9350
:1002C000DF93182FEB018091C3059091C405681747
:1002D000790760F48091C1059091C205C80FD91FBC
:1002E000188380E0DF91CF911F910895E091F00590
:1002F000F091F105309711F481E0F4CF81E0809323
:10030000C0058091DC059091DD0509958091C305BC
:100310009091C405C817D90778F7DCCFCF93DF9346
:10032000EC01FB0130E020E0C901880F991F8C1718
:100330009D0778F44081DB014D93BD0111979181B8
:10034000979599279795942B9C932F5F3F4F3296C3
:10035000EBCFC901DF91CF910895009721F0805C28
:100360009F4F0C9434010895AF92BF92CF92DF92C9
:10037000EF92FF920F931F93CF93DF936C017B015A
:100380008B01040F151FEB015E01AE18BF08C017EB
:10039000D10759F06991D601ED91FC910190F0815E
:1003A000E02DC6010995892B79F7C501DF91CF9121
:1003B0001F910F91FF90EF90DF90CF90BF90AF9083
:1003C0000895FC01538D448D252F30E0842F90E05B
:1003D000821B930B541710F0CF9608950197089540
:1003E000FC01918D828D981761F0A28DAE0FBF2F09
:1003F000B11D5D968C91928D9F5F9F73928F90E05F
:1004000008958FEF9FEF0895FC01918D828D9817CD
:1004100031F0828DE80FF11D858D90E008958FEF0A
:100420009FEF0895FC01918D228D892F90E0805CD3
:100430009F4F821B91098F739927089584E494E05C
:100440000E94120221E0892B09F420E0822F0895F6
:1004500080E090E0892B29F00E941E0281110C940B
:1004600000000895FC01A48DA80FB92FB11DA35A57
:10047000BF4F2C91848D90E001968F739927848FC4
:10048000A689B7892C93A089B1898C9183708064E7
:100490008C93938D848D981306C00288F389E02D88
:1004A00080818F7D80830895EF92FF920F931F9339
:1004B000CF93DF93EC0181E0888F9B8D8C8D981317
:1004C0001AC0E889F989808185FF15C09FB7F89423
:1004D000EE89FF896083E889F9898081837080646F
:1004E00080839FBF81E090E0DF91CF911F910F91BA
:1004F000FF90EF900895F62E0B8D10E00F5F1F4FC9
:100500000F731127E02E8C8D8E110CC00FB607FCD7
:10051000FACFE889F989808185FFF5CFCE010E9465
:100520003202F1CFEB8DEC0FFD2FF11DE35AFF4F9F
:10053000F0829FB7F8940B8FEA89FB8980818062F3
:10054000CFCFCF93DF93EC01888D8823B9F0AA89B0
:10055000BB89E889F9898C9185FD03C0808186FD7E
:100560000DC00FB607FCF7CF8C9185FFF2CF8081CD
:1005700085FFEDCFCE010E943202E9CFDF91CF910E
:10058000089590E0FC01E255FF4F2491FC01E656EE
:10059000FF4F3491FC01EA57FF4FE491EE23C9F07D
:1005A000222339F0233001F1A8F4213019F122304F
:1005B00029F1F0E0EE0FFF1FE458FF4FA591B49131
:1005C0008FB7F894EC91611126C030953E233C938F
:1005D0008FBF08952730A9F02830C9F0243049F79B
:1005E000809180008F7D03C0809180008F77809301
:1005F0008000DFCF84B58F7784BDDBCF84B58F7D5E
:10060000FBCF8091B0008F778093B000D2CF8091E4
:10061000B0008F7DF9CF3E2BDACFCF93DF9390E000
:10062000FC01E656FF4F24918A579F4FFC018491AD
:100630008823C9F090E0880F991FFC01EE58FF4F06
:10064000A591B491FC01E458FF4FC591D49161117B
:100650000DC09FB7F8948C91209582238C9388814C
:10066000282328839FBFDF91CF910895623051F4F2
:100670009FB7F8943C91822F809583238C93E881D7
:100680002E2BEFCF8FB7F894EC912E2B2C938FBF9E
:10069000EACF8E3008F08E508770806480937C00A3
:1006A00080917A00806480937A0080917A0086FD40
:1006B000FCCF809178009091790008953FB7F8942D
:1006C0008091A8039091A903A091AA03B091AB03D4
:1006D00026B5A89B05C02F3F19F00196A11DB11D9D
:1006E0003FBFBA2FA92F982F8827BC01CD01620FD9
:1006F000711D811D911D42E0660F771F881F991F94
:100700004A95D1F708958F929F92AF92BF92CF9260
:10071000DF92EF92FF926B017C010E945E034B011E
:100720005C01C114D104E104F104B9F00E945E033C
:10073000681979098A099B09683E7340810591050A
:1007400080F321E0C21AD108E108F10888EE880E92
:1007500083E0981EA11CB11CE4CFFF90EF90DF90C6
:10076000CF90BF90AF909F908F900895209182037B
:10077000260F3327331F21323105ECF420911A0460
:10078000FC0190E080E0243069F082E00895A091BF
:1007900082032191AC01405A5C4FA40FB52FB11DCB
:1007A0002C930196861798F380918203680F6093CB
:1007B000820380E0089581E0089510921A0481E098
:1007C000809319041092F40361E082E10E94C10257
:1007D00061E083E10E94C102E9EBF0E080818E7F5D
:1007E000808380818D7F808388E48093B80085E456
:1007F0008093BC000895CF93DF9391E090935F03C3
:100800008823B9F0C091B800D091BA008091BC00A3
:100810008A7B8093BC0060E082E10E94C10260E0BC
:1008200083E10E94C1020E94DD03D093BA00C0930D
:10083000B800DF91CF9108958F929F92AF92BF92AF
:10084000CF92DF92EF92FF920F931F93CF93DF939C
:10085000D0914304D13208F0D7C0182FC091420480
:100860000E945E036B017C0180911A0481116BC0B0
:1008700082E080931A04109319048FEF8093180478
:1008800010921704D0931604A2E2B4E0E6EFF3E06E
:1008900080E0D81391C01092F5038091F503CC0F3E
:1008A000C82BC093F5038091F403813009F088C010
:1008B0001092F4030E945E036B017C018091F503AA
:1008C0008093BB0080911C0490911D04A0911E0494
:1008D000B0911F04892B8A2B8B2BA1F00E945E0301
:1008E00000911C0410911D0420911E0430911F04DE
:1008F0006C197D098E099F09061717072807390704
:1009000008F442C08091BC0083FDD8CF85EC809371
:10091000BC000E945E036B017C0180911A0482304E
:1009200009F450C0809118048F3F09F46FC0809182
:100930001804803209F46CC080911804803309F4E3
:1009400069C084E026C080911C0490911D04A09190
:100950001E04B0911F04892B8A2B8B2B09F484CFA2
:100960000E945E0380901C0490901D04A0901E04C1
:10097000B0901F046C197D098E099F098616970691
:10098000A806B90608F070CF80911B040E94FB03F3
:1009900085E0109221041092430410922004DF910C
:1009A000CF911F910F91FF90EF90DF90CF90BF906C
:1009B000AF909F908F9008959D9191938F5F69CF95
:1009C00085EEA5CF80911C0490911D04A0911E047A
:1009D000B0911F04892B8A2B8B2B09F49ECF0E9488
:1009E0005E0300911C0410911D0420911E0430919F
:1009F0001F046C197D098E099F0906171707280720
:100A0000390708F08ACFC0CF81E0C3CF80E0C1CFE3
:100A100082E0BFCF83E0BDCF089508950895E091AF
:100A20005E0380915D03E81730F4F0E0E35CFC4F77
:100A3000808190E008958FEF9FEF089590915E037D
:100A400080915D032FEF3FEF981748F4E92FF0E016
:100A5000E35CFC4F208130E09F5F90935E03C9010F
:100A6000089580915D0390915E03891B990B089511
:100A7000CF92DF92EF92FF920F931F93CF93DF936A
:100A80007C01CB018A0120912004222389F0EB0113
:100A90006B01C40ED51ECC15DD0569F06991D70137
:100AA000ED91FC910190F081E02DC7010995F3CF04
:100AB000642F0E94B603C801DF91CF911F910F915F
:100AC000FF90EF90DF90CF900895CF93DF931F9228
:100AD000CDB7DEB76983209120042223F9F020915D
:100AE0004304203258F021E030E0FC0133832283BC
:100AF00090E080E00F90DF91CF91089580912104E4
:100B0000E82FF0E0EE5DFB4F998190838F5F80933B
:100B100021048093430481E090E0ECCF61E0CE01BA
:100B200001960E94B603F7CF90E080E00895DF922F
:100B3000EF92FF920F931F93CF93DF93EC01D62E8A
:100B40007A01890188818C3008F067C061E08D2DC1
:100B50000E940D038881282F30E0F901EE0FFF1F5E
:100B6000E20FF31FEB5CFA4F9D2D9F736081607C59
:100B7000692B608320E232E02E193F0937FF02C063
:100B80002D5F3F4F3595279535952795298320E68D
:100B900039E0201B310B37FF02C02D5F3F4F3595E9
:100BA0002795359527952A832CE0622F0E94901E69
:100BB000829FB001112430E020E0AB01420F531FAF
:100BC000FA01EE0FFF1FE40FF51FEB5CFA4F908167
:100BD00096FD16C02F5F3F4F2C30310571F7811104
:100BE0000FC01092800082E08093810010928500F7
:100BF00010928400B19A80916F00826080936F00A0
:100C0000E8818E2F90E0FC01EE0FFF1FE80FF91F27
:100C1000EB5CFA4F8081806480838881DF91CF9183
:100C20001F910F91FF90EF90DF90089520913A036C
:100C300030913B0382179307F8F49C01220F331F76
:100C4000280F391F8091380390913903E0913703C1
:100C5000820F931FE80FF92FF11D6083E091360397
:100C6000E80FF92FF11D508320913503820F911D5C
:100C7000FC01408380E0089581E0089510923403E0
:100C800010923B0310923A03E4E2F3E0ACE1B3E0EC
:100C9000119211921D9283E0E433F807C9F7089589
:100CA0005F926F927F928F929F92AF92BF92CF92FC
:100CB000DF92EF92FF920F931F93CF93DF938330D6
:100CC00008F061C0D1E0D80FDD0FDD0FDD0F5D2E24
:100CD000D53110F044E1542EC62F082FD8508D2E58
:100CE000912CC401880F991F9C0122583A4F590139
:100CF000D12CC12C10E077247394D515C8F58EEF54
:100D00008D0F8231F8F4F601E80DF91DEF5FF94F10
:100D100090819230B8F48C2F8721662463948111DE
:100D200001C0612C7601EE0CFF1C913089F417296B
:100D300037E9E30EF11CF501EE0DFF1D862D90E065
:100D400091838083770CDF5F8FEFC81AD80AD5CFE5
:100D5000882371F3F701E956FF4FEA0DFB1D8081EF
:100D60009181019729F362E08D2F0E940D03E0CF5E
:100D7000011119C0F8948BB16C2F68276C7F612327
:100D800068276BB97894DF91CF911F910F91FF90F5
:100D9000EF90DF90CF90BF90AF909F908F907F901B
:100DA0006F905F9008950130D1F4C123F89495B10C
:100DB000812F8F73809589239C2F9F73892B85B9F1
:100DC00088B1612F6295669566956370609568231A
:100DD000C295C695C695C370C62BC8B9D3CF1F7030
:100DE000F89498B1812F880F880F80958923C123AB
:100DF000CC0FCC0FC82BF1CF8F929F92AF92BF92A6
:100E0000CF92DF92EF92FF920F931F93CF93DF93D6
:100E1000EB01843108F098C0082F10E0F801EF5F73
:100E2000F94F9081933009F49CC0943009F08CC044
:100E30008250823108F081C0F801ED5FFC4FC08024
:100E4000D12C7601EE0CFF1C4B01603282E078075A
:100E50000CF03EC0F701EC0DFD1DE65AFA4F818102
:100E6000A8E88A2E912C881A910887FD9394880C03
:100E7000991C880C991C092C000CAA08BB088281BB
:100E800028E532E0281B310987FD3395220F331FF7
:100E9000220F331F032E000C440B550B2819390960
:100EA0004A095B09DB01653B710514F0A4EBB0E076
:100EB000B7FF02C0B0E0A0E00E94571E24EB30E074
:100EC00040E050E00E942D1E820E931EA41EB51E0F
:100ED000F701EC0DFD1DE65AFA4F20812C3068F524
:100EE000318188E890E0831B910937FD9395880F45
:100EF000991F880F991F881699067CF0328188E522
:100F000092E0831B910937FD9395880F991F880FF5
:100F1000991F881699060CF4C4010297880F991F2F
:100F20004FB7F89430E0F901EE0FFF1FE20FF31F07
:100F3000EB5CFA4F928381834FBF000F111FF801C2
:100F4000EB5EF94FD183C083DF91CF911F910F9159
:100F5000FF90EF90DF90CF90BF90AF909F908F90D9
:100F600008957B01D82F833041F08BEF800F8230C2
:100F700020F087EF800F833058F461E08D2F0E94BE
:100F80000D03E114F10461F460E08D2F0E94C102B1
:100F9000000F111FF801EB5EF94FF182E082D4CF10
:100FA0008FEFE816F10411F461E0EFCFF801E2559C
:100FB000FF4FE491E33021F148F4E130B9F0E23041
:100FC000D1F080E8E816F1047CF7DECFE73011F1CC
:100FD000E83041F1E430A9F780918000806280938D
:100FE0008000F0928B00E0928A00D2CF84B58068B6
:100FF00084BDE7BCCDCF84B5806284BDE8BCC8CFDA
:1010000080918000806880938000F0928900E09257
:101010008800BECF8091B00080688093B000E092DD
:10102000B300B6CF8091B00080628093B000E092B0
:10103000B400AECF9EEF980F923180F4E82FF0E02D
:10104000DF01AF5FB94F9C91913041F4EE0FFF1F6C
:10105000EB5EF94F608371830C94C1020895A82F51
:10106000B0E0AD5FBC4F9C91292F30E0F901EE0F4D
:10107000FF1FE20FF31FE65AFA4FE0812E2F30E0F8
:10108000F901EE0FFF1FE20FF31FEB5CFA4F8081B7
:101090008F7B808380910103981308C0992319F0F6
:1010A0009150909301038FEF8C9308958823D9F387
:1010B000E0910203EF5FE0930203F0E0ED52FE4F98
:1010C0009083F1CFDC0170E0FB01E656FF4FE49125
:1010D0001896EC9318976A577F4FFB018491E82F7D
:1010E000F0E0EE0FFF1FE458FF4F859194911596A5
:1010F0009C938E931497FB016491E62FF0E0EE0F22
:10110000FF1FEE58FF4F8591949117969C938E93F5
:1011100016970895DC012C911196ED91FC91F894AD
:101120008181822B81839281322F30959323928308
:1011300087E090E00197F1F781818323818383E247
:1011400090E00197F1F790817894EFECF0E031971F
:10115000F1F7922381E009F480E00895FC01908189
:101160000180F281E02D292F209560FF14C0F894B2
:101170008281822382838181892B8183A3E2B0E0F3
:101180001197F1F78281982B9283789487ED90E004
:101190000197F1F70895F8948281822382838181F7
:1011A000892B8183AFEFB0E01197F1F78281982B03
:1011B000928378948FE090E0EBCFDF92EF92FF92F2
:1011C0000F931F93CF93DF93EC01D62EE42E08E00C
:1011D00010E0FF24F39461E08D2D8F2109F460E08D
:1011E000CE010E94AE08FF0C01501109A1F7E110D9
:1011F00010C0F894E981FA819181888180958923D2
:101200008183E981FA819281888180958923828313
:101210007894DF91CF911F910F91FF90EF90DF9025
:101220000895FC0190810180F281E02DF894818184
:10123000292F20958223818378943DE743E050E075
:10124000315029F1DA011197F1F780818923C1F337
:10125000F8948281822382838181892B818378948F
:10126000ABE7B7E01197F1F7F8948181822381838E
:10127000A3E1B1E01197F1F78081982381E009F0B3
:1012800080E07894E3E6F6E03197F1F7089580E0A6
:101290000895BF92CF92DF92EF92FF920F931F9328
:1012A000CF93DF93EC01B62EC72E142FED84E110FF
:1012B00004C00E94110981110EC01B861D861C8668
:1012C00080E0DF91CF911F910F91FF90EF90DF9021
:1012D000CF90BF90089540E060EF111101C06CEE17
:1012E000CE010E94DD08D12C01E011E0CE010E9468
:1012F0008A08F82ECE010E948A0891E0F91218C0DF
:10130000813099F51134C8F2EB86E11002C081E01A
:101310008D878B81882389F22396EB2DFC2DCF01BD
:10132000089629912193E817F907D9F781E0C9CFE9
:10133000ED2DF0E0F8120FC08B851817A0F4DE0138
:10134000AE0FBF1F13968C91802379F4F12C1930C6
:1013500008F41C87E12EEC0FFD1F8381902F9095E0
:10136000892383830AC08113F1CFFE01ED0DF11DA6
:101370008381802B8383FF24F3946F2DCE010E9401
:10138000AE081F5F000F11F4D39401E087E08D15C4
:1013900008F0ACCFB7CF5F926F927F928F929F92FF
:1013A000AF92BF92CF92DF92EF92FF920F931F9373
:1013B000CF93DF935C016901DA015C90232B19F470
:1013C000CC24CA94DC2C8A013A01660E771ED0E048
:1013D000C0E0F12CE12C87E0882E912CF501808172
:1013E0009181D8016C910C2E01C0660F0A94EAF726
:1013F00065296F77DC01ED91FC910190F081E02D82
:101400000995BFEFEB1AFB0AF801608170E0C40197
:101410008C1B9D0B02C0759567958A95E2F7562E39
:101420002196C730D10558F1CE14DF0441F1D50122
:101430008D919C91652D6F77DC01ED91FC91019070
:10144000F081E02D0995BFEFEB1AFB0A551C5524DE
:10145000551C2797E6CFEC14FD0408F4BFCFDF91AD
:10146000CF911F910F91FF90EF90DF90CF90BF90A1
:10147000AF909F908F907F906F905F9008950F5FD7
:101480001F4F6016710639F7209749F3EC14FD04DD
:1014900030F7F5018081918161E070E001C0660F55
:1014A000CA95EAF761506521DC01ED91FC9101904C
:1014B000F081E02DDF91CF911F910F91FF90EF9080
:1014C000DF90CF90BF90AF909F908F907F906F9064
:1014D0005F9009941F93CF93DF9300D0CDB7DEB711
:1014E000182F7A8369838091BE059091BF0500977C
:1014F000C9F0DC01ED91FC910190F081E02D1031FB
:10150000B8F461157044A0F4612F606E099522E073
:1015100030E0AE014F5F5F4F62E070E08EEB95E030
:101520000E94CB090F900F90DF91CF911F910895EA
:1015300060EF09958091BE059091BF05DC01ED91AA
:10154000FC910190F081E02D6FE609958091BE0538
:101550009091BF05DC01ED91FC910190F081E02DAF
:10156000612F099522E030E0AE014F5F5F4F62E0EE
:1015700070E08EEB95E00E94CB098091BE059091C2
:10158000BF05DC01ED91FC910190F081E02D67EF4A
:101590000995C8CFCF938630B0F421E030E0082E13
:1015A00002C0220F331F0A94E2F74091EE035091DC
:1015B000EF03672B51F42095309524233523309386
:1015C000EF032093EE03CF910895242B352B309316
:1015D000EF032093EE0390911B039111F4CFC82FDA
:1015E0000E944903BC018C2FCF910C946A0AEF92A0
:1015F000FF920F931F93CF93DF93C82F8091BE0567
:101600009091BF050097C9F17A018B01DC01ED9142
:10161000FC910190F081E02D60EF09958091BE056D
:101620009091BF05DC01ED91FC910190F081E02DDE
:101630006C2F0995E7010E0D1F1DC017D10759F03A
:1016400030E020E0AE0161E070E08EEB95E00E94BA
:10165000CB092196F2CF8091BE059091BF05DC01A8
:10166000ED91FC910190F081E02D67EFDF91CF913A
:101670001F910F91FF90EF900994DF91CF911F91EF
:101680000F91FF90EF900895FF920F931F93CF93C8
:10169000DF9300D0CDB7DEB7082F10E0F801E45497
:1016A000FC4F9081F62EF922095E1C4F411104C0B7
:1016B000F80190819F1511F12F2D30E03A83298395
:1016C000A091BE05B091BF051097B1F0682F6F7063
:1016D0006069ED91FC9111970190F081E02DCD01B1
:1016E000099522E030E0AE014F5F5F4F62E070E0AD
:1016F0008EEB95E00E94CB09F801F0820F900F90DD
:10170000DF91CF911F910F91FF900895833040F5A5
:10171000282F30E0F901E154FC4F6083672B01F181
:1017200024543C4FF9016081811106C099B19C7F1E
:10173000692341E00C94440B813049F493B126B104
:101740009F73F0E42F9F90011124922BF1CF26B1CB
:1017500030E035952795359527952F706223E9CF91
:101760000895CF92DF92EF92FF920F931F93CF9342
:10177000DF93FC01E058FF4FE080EE2009F45CC0ED
:10178000EC01C05CDF4FA881B981109709F454C007
:10179000FC01EF57FF4FC080D180F601118100811D
:1017A000ED91FC9111970190F081E02D60EFCD015A
:1017B000099588819981DC01ED91FC910190F0817E
:1017C000E02D69E7099588819981DC01ED91FC9113
:1017D0000190F081E02D602F099588819981DC01CD
:1017E000ED91FC910190F081E02D612F0995F12C94
:1017F00001E010E00F5F1F4FE016F10659F030E0F6
:1018000020E0A601400F511F61E070E0CE010E9470
:10181000CB09F0CF88819981DC01ED91FC91019099
:10182000F081E02D67EFDF91CF911F910F91FF9035
:10183000EF90DF90CF900994DF91CF911F910F919E
:10184000FF90EF90DF90CF900895009711F00C94E7
:10185000B10B0895FC0101900020E9F73197BF0119
:10186000681B790BAC0181E70C94F70A4F925F92E9
:101870006F927F928F929F92AF92BF92DF92EF9280
:10188000FF920F931F93CF93DF93D82E8B01D42F0A
:10189000C22F6F3F760709F490C081E08093200447
:1018A000D0924204109221041092430481EE94E0FD
:1018B0000E9465058C2F0E941C048091FF0290916C
:1018C00000038230910538F0880F991F880F991F07
:1018D00005970197F1F70E945E034B015C0180912F
:1018E0001A0481116CC0CD2FD13208F0C0E281E022
:1018F00080931A04809319049FEF90931804109218
:1019000017049C0F909316048093F5039091F503B0
:101910008D2D880F892B8093F5038091F4038130FE
:1019200009F09EC01092F4030E945E034B015C011B
:101930008091F5038093BB0080911C0490911D045D
:10194000A0911E04B0911F04892B8A2B8B2BA1F030
:101950000E945E0340901C0450901D0460901E0481
:1019600070901F04681979098A099B094616570661
:101970006806790608F444C08091BC0083FDD8CF86
:1019800085EC8093BC000E945E034B015C0180915A
:101990001A04813009F466C0809117048C1710F482
:1019A000C0911704A6EFB3E0EDE3F3E080E08C17FD
:1019B00061F19D9191938F5FFACF00E08CCF809180
:1019C0001C0490911D04A0911E04B0911F04892B4A
:1019D0008A2B8B2B09F483CF0E945E0340901C045A
:1019E00050901D0460901E0470901F0468197909BE
:1019F0008A099B09461657066806790608F06FCFD4
:101A000080911B040E94FB03C0E010925E03C09310
:101A10005D03ED2EF12C8C2F90E0E816F9060CF00A
:101A200043C08DE291E00E942A0CD092E001009325
:101A3000E10100EE11E0C801805E91408E159F0526
:101A4000D4F50F5F1F4F90915D0380915E0398174F
:101A500091F181EE94E00E941E05F8018183EBCFA5
:101A600085EE8FCF80911C0490911D04A0911E04DF
:101A7000B0911F04892B8A2B8B2B09F488CF0E94ED
:101A80005E0340901C0450901D0460901E047090F2
:101A90001F04681979098A099B09461657066806C2
:101AA000790608F074CFACCF8E159F050CF0BDCF32
:101AB0008AE491E0B8CFDE5F6D2F70E040EE51E038
:101AC00087E7DF91CF911F910F91FF90EF90DF900B
:101AD000BF90AF909F908F907F906F905F904F904E
:101AE0000C94F70ACF93DF93DB01909101039C30B4
:101AF00078F530910203682F70E0FB01ED5FFC4F39
:101B00003323E1F0C32FD0E0CD52DE4F88818083B4
:101B1000315030930203808123E0829FC001112461
:101B2000865A9A4F1A161B0674F4141615065CF49E
:101B30009A01AD01DF91CF910C94970590839F5F3F
:101B400090930103E8CF20E639E040E252E0F2CF83
:101B500086E691E0DF91CF910C942A0C9F92AF9290
:101B6000BF92CF92DF92EF92FF920F931F93CF938A
:101B7000DF93C82ED12CE601C258DA4FFE01ED5793
:101B8000FF4F90819F3709F49FC0963061F4909188
:101B90001A03992341F06630710529F010921A0357
:101BA0009FEF909300017B01182F0EEF080F023179
:101BB00008F564307105F1F0F601ED5FFC4F8081AE
:101BC0008C30C0F490E0FC01EE0FFF1FE80FF91F0E
:101BD000E65AFA4FE0818E2F90E0FC01EE0FFF1FD6
:101BE000E80FF91FEB5CFA4F808186FF03C0812F5D
:101BF0000E942F0852EF952E910E85E0891558F01E
:101C000061E070E032E0E316F10411F070E060E0B2
:101C1000892D0E94CA0A0231C8F4E12FE695E695A3
:101C2000E695F0E0E454FC4F2081312F377081E0DD
:101C300090E001C0880F3A95EAF7E114F10421F031
:101C40003BE0E316F10401F5822B80835601AA0CD8
:101C5000BB1CF501EB5EF94F118210828CE0E81697
:101C6000F10408F0C4C0F701E85CF14F0C94B01E19
:101C7000580E850E470E960EB40EF70EEB0EF70EAD
:101C8000F70EF70E640E700E80958223DECF35E0DE
:101C90003915D0F0023120F460E0812F0E940D034D
:101CA000CD57DF4F88818F3779F082E088830CC071
:101CB000023150F460E0812F0E940D03CD57DF4FB9
:101CC00088818F3709F01882DF91CF911F910F9192
:101CD000FF90EF90DF90CF90BF90AF909F900895CE
:101CE000023190F762E0812F0E940D03CD57DF4F44
:101CF00088818F3711F08BE08883F501EB5EF94F17
:101D000081E090E091838083DFCF0231E8F660E0EC
:101D1000812F0E94C10261E0812F0E940D03CD57E7
:101D2000DF4F88818F3781F281E0C0CF133041F0DF
:101D30008BEF810F823020F087EF810F833020F608
:101D400061E0812F0E940D0361E0812F0E940D034D
:101D500060E0812F0E94C102CD57DF4F88818F370D
:101D600009F4B2CF83E0A2CF023108F0ADCFCD5756
:101D7000DF4F88818F3711F084E08883F601ED5FB3
:101D8000FC4F80818F3FA9F090E0FC01EE0FFF1F18
:101D9000E80FF91FE65AFA4FE0818E2F90E0FC0120
:101DA000EE0FFF1FE80FF91FEB5CFA4F808186FDF5
:101DB0008BCF4FEF5FEF6FEF7FEF812FDF91CF91F1
:101DC0001F910F91FF90EF90DF90CF90BF90AF9059
:101DD0009F900C94720D1251123008F075CFCD57B0
:101DE000DF4F88818F3709F46FCF86E05FCF8AE7B6
:101DF00091E0DF91CF911F910F91FF90EF90DF90D5
:101E0000CF90BF90AF909F900C942A0C0F931F938C
:101E1000CF93DF9381E080931B0380911A03882383
:101E200029F010921A038FEF809300011092BF03E4
:101E30001092BC03109217031092C0031092BD03BE
:101E4000109218031092C1031092BE03109219034E
:101E500003E013E0C0E0DFEF82EF8C0F62E070E0A0
:101E6000863030F08EEF8C0F823128F461E070E024
:101E70008C2F0E94AE0DF801D1938F01CF5FC4313A
:101E800059F71092EF031092EE0310920203109292
:101E9000010310921B03DF91CF911F910F910895C1
:101EA00085ED8093BC0080911C0490911D04A0914D
:101EB0001E04B0911F040796A11DB11D23E0B69525
:101EC000A795979587952A95D1F72091BC0024FD79
:101ED00003C010921A04089540911C0450911D04EF
:101EE00060911E0470911F04452B462B472B69F30C
:101EF0000097A105B10541F025E32A95F1F700000F
:101F00000197A109B109E1CF80911B040C94FB0357
:101F10002F923F924F925F926F927F928F929F92F9
:101F2000AF92BF92CF92DF92EF92FF920F931F93E7
:101F3000CF93DF93CDB7DEB72C970FB6F894DEBF03
:101F40000FBECDBFF62E8A018F3609F46CC208F0A1
:101F500068C0893609F4E6C2E0F4813509F4F3C2B9
:101F60002C960FB6F894DEBF0FBECDBFDF91CF9198
:101F70001F910F91FF90EF90DF90CF90BF90AF90A7
:101F80009F908F907F906F905F904F903F902F9099
:101F900008958B3609F46DC28D3611F7662301F36F
:101FA000DA010C9180EF0E94DC008EE60E94DC00DA
:101FB000802F0E94DC00043108F0B0C210E0F8016C
:101FC000EF5FF94F80810E94DC00000F111FF801C4
:101FD000EB5EF94F7F0180818F770E94DC00D70193
:101FE0008D919C919C012078232B39F0880F892FAB
:101FF000881F990B8F770E94DC00F801EB5EF94F88
:10200000808191819C012227307C232B09F486C298
:10201000990F880B990F982F881F8F770E94DC00EB
:102020007DC2863709F498C008F078C0803709F47B
:10203000B4C1833709F094CF31E0361708F090CF60
:10204000DA017C9011966C90862C912CBBE06B9EF3
:10205000F0011124ED5DFD4FC080D180C114D10489
:1020600009F007C5E1E47E127BCFB3E0FB1278CF25
:10207000F401EF5FF94F80818F3709F471CF87E06A
:102080008083FF24F394F8018281811101C0F12C37
:10209000CD2891F58EE090E00E94CA1E8C0160E090
:1020A000862D0E940D03F401E656FF4FE491D801FE
:1020B000EC93F401EA57FF4FE491F0E0EE0FFF1FBD
:1020C000E859FF4F85919491F8019283818313869B
:1020D000158614861286118610861782168215823E
:1020E000148213828BE0889DF001899DF00D1124EC
:1020F000ED5DFD4F118300838BE0889DF001899D8C
:10210000F00D1124ED5DFD4F1282138214821582B1
:102110001682178210861186F28622CF883709F43C
:1021200000C18A3709F01CCF31E0361708F018CF0C
:10213000DA0111968C91B0E88B9F90011124FA017D
:102140008081820F932F911D009709F469C19093AC
:1021500002018093010104CFDA0111969C9111973D
:1021600095FF05C08BE891E00E942A0CF9CEFA0198
:10217000808131E096FB222720F92327987198303F
:10218000A9F1F0F49111ECCE309320048093420435
:10219000109221041092430452E0E52EEF14F0F463
:1021A000F801EE0DF11D61816795662767958081C5
:1021B000680F81EE94E00E946505E394E394EECF0E
:1021C0009031B1F1983109F0CBCE20910001121677
:1021D0000CF463C08FEF80930001C2CE81E00E94B7
:1021E0001C0483E191E00197F1F7BACE12969C911D
:1021F000129713964C91B6E06B1313C0E0E84E9F14
:10220000B0011124690F711DD80115964C911597D5
:1022100047954427479514969C91490F0E94360C88
:102220009FCE479544274795490F6FEF7FEFF6CF35
:10223000E0910001E7301CF08BEA91E095CF129617
:102240003C91129713969C91B6E06B131FC0F0E877
:102250009F9FA0011124430F511DD80115969C91F9
:10226000159797959927979514963C91930FEF5F43
:10227000E0930001B5E0EB02F0011124EA53FC4FBA
:10228000808352834183938324836ACE97959927D1
:102290009795930F4FEF5FEFEACF90E0622F022EFA
:1022A000000C770B35E0492F50E06417750764F098
:1022B000349FF001359FF00D1124EA53FC4F40810B
:1022C000481719F09F5FEFCF90E085E0492F50E06D
:1022D000641775071CF19830F8F4FA0131968E9F57
:1022E000D0018F9FB00D1124AA53BC4F3C91849F05
:1022F000F001859FF00D1124EA53FC4F30831196B5
:102300004D915C9112975283418313963C911397A0
:10231000338314963C9134839F5FD8CF8FEF820F25
:102320005ACFFA018181F0E88F9F90011124DA01E0
:102330008C91820F932F911D009721F090930003B1
:102340008093FF0280911A0381110ACE10E08EEE75
:10235000810F823028F466E070E0812F0E94AE0D7C
:102360001F5F1431A1F781E080931A0310925E037E
:1023700010925D0310922104109243040E94DD0329
:102380008CE095E090938103809380038DE095E04D
:102390009093850380938403E3CDB4E0B61708F0EF
:1023A000DFCDFA01F0808EEF8F0D823108F0D8CDAD
:1023B000E180C280D3801481EF2DF0E0ED5FFC4F0F
:1023C00080818C30C0F490E0FC01EE0FFF1FE80F1D
:1023D000F91FE65AFA4FE0818E2F90E0FC01EE0FD4
:1023E000FF1FE80FF91FEB5CFA4F808186FF03C0E7
:1023F0008F2D0E942F08F0E81F9FA00111244D0D82
:10240000511D20E8C29EB00111246E0D711D8F2D4B
:102410000E94720D64E070E08F2D0E94AE0DA0CD81
:1024200081E090E094CEF1E0F61708F099CDDA0162
:1024300011966C9170E0B2E0FB16B1F0FA01828166
:10244000F0E88F9FC0011124682B792B23E0F2164E
:1024500059F0DA0113968C9190E090E4899F902DC9
:1024600088271124682B792BF80180810E94FC06B3
:1024700077CD80EF0E94DC008CE60E94DC001EEF2E
:1024800084EF810F863050F582E00E94DC008AE004
:102490000E94DC008DEF810F823010F189EF810FF7
:1024A000833020F51DC0123158F780E00E94DC0017
:1024B00081E00E94DC008BE00E94DC0081E00E9451
:1024C000DC0081E00E94DC0081E00E94DC0081E50C
:1024D0000E94DC0081E00E94DC00D2CF1130D1F6F6
:1024E00083E00E94DC0088E00E94DC00123130F4BE
:1024F00084E00E94DC008EE00E94DC0080EF810F0F
:10250000823030F486E00E94DC0081E00E94DC0032
:102510008FE70E94DC001F5F123129F687EF0E94CF
:10252000DC001ECD80EF0E94DC008AE60E94DC0009
:1025300012EF8FE7163008F4812F0E94DC001F5F36
:102540001630B9F7EBCF662309F40ACDFA01908172
:10255000892F8F70833009F447C108F072C0813031
:1025600009F497C1823009F0FBCC809122028111DD
:10257000F7CC809121028111F3CC81E0809322027B
:1025800010E009E080913403181708F0B2C0812FE1
:1025900090E0AC01445E5C4FDA012C91222309F4F7
:1025A000A4C0C0903803D0903903089FD001099F80
:1025B000B00D1124A351BB4F16962D913C91179746
:1025C000F901808118969C911897892B8083149625
:1025D0006D917C91159718968C9118972D913C913F
:1025E00011977901EE0CFF1C2E0D3F1D1296ED90F8
:1025F000FC90D701AA0FBB1FAE0DBF1DF601EA0F5D
:10260000FB1FDB01FC90982F90959F21C82ECF28AF
:10261000FFB6F8942E0F3F1F2E173F0709F463C033
:10262000E190DB0188E0CC9200C0E7FE9C93EE0CC9
:1026300000C000C000C008F49C9300C08A9599F7C0
:10264000EBCF843009F458C0853009F089CC9181F2
:10265000292F2F7109F49CC0F92FF0725F2E81E0B1
:1026600080932102E22EEE0CE20EF12C00913A034F
:1026700010913B03021B11095801AA0CBB1CA00EB0
:10268000B11EC0903803D090390336016E0C7F1C08
:10269000292F2074422E96FFBEC1C7010E94CA1E78
:1026A0004C01009729F0A70170E060E00E940A2029
:1026B000C801511002C090E080E0BC01660F771F96
:1026C000680F791F6C0D7D1DA701C4010E94EF1FCB
:1026D000552009F4B6C1A501B601C3010E94F81F37
:1026E00010E000E0B5C1FFBE7894DA011C921F5FD4
:1026F00049CF1092220234CC80912102811130CC3A
:10270000C380D12CF12CE12C9EE0CC0CDD1CEE1C06
:10271000FF1C9A95D1F7848190E0B0E0A0E025E11C
:10272000880F991FAA1FBB1F2A95D1F78C0D9D1DDD
:10273000AE1DBF1D21816C017D01C20ED11CE11CAB
:10274000F11C828190E0B0E0A0E037E0880F991F93
:10275000AA1FBB1F3A95D1F7C80ED91EEA1EFB1E51
:10276000A0903A03B0903B0310E000E0C114D10404
:10277000E104F10471F5A501440F551F4A0D5B1DDD
:1027800070E060E080913803909139030E940A2044
:102790004091340350E061E070E08CE193E02C96CE
:1027A0000FB6F894DEBF0FBECDBFDF91CF911F9162
:1027B0000F91FF90EF90DF90CF90BF90AF909F90E0
:1027C0008F907F906F905F904F903F902F900C94E0
:1027D0000A20A016B106E1F2B701A601C8010E94C5
:1027E00016060F5F1F4FF5CF809121028111B8CBE4
:1027F000E280B0E8EB9EC0011124E180E80EF92EE2
:10280000F11C458150E070E060E0AEE0440F551FE0
:10281000661F771FAA95D1F7868190E0B0E0A0E00F
:1028200015E1880F991FAA1FBB1F1A95D1F7840FB6
:10283000951FA61FB71F2381AC01BD01420F511D7B
:10284000611D711D848190E0B0E0A0E007E0880F79
:10285000991FAA1FBB1F0A95D1F7480F591F6A1F5E
:102860007B1FC7010E94160640913403A4E2B3E027
:1028700090E080E0841708F073CBFC012D913D912E
:102880000196E216F306B0F7E45EFC4F81E0808328
:1028900067CB913009F064CBF2E0F61708F060CB1B
:1028A000709020020E943E06772081F06DEEC62EC9
:1028B00064E0D62EE12C6E2DC6010E946208E394DE
:1028C00029E0C20ED11C38E0E312F5CF6BEAF69E88
:1028D000912C1124969434E2A32E33E0B32E4DEEC6
:1028E000C42E44E0D42E812C6624639452E0552EED
:1028F000711007C0D80111966C916F71C6010E94CA
:102900006208F801818190E025E0959587952A95E8
:10291000E1F78130910509F46DC08230910509F429
:102920006EC0892B31F410923603609237035092B7
:102930003503D8011396EC90B0E8EB9E700111249A
:10294000F8018281E80EF11CD601ED92FC9290E034
:1029500080E0882021F0F5013297808191819701F4
:10296000280F391FF501219331935F01D60113968A
:102970009C938E93129780913A0390913B03E80EBB
:10298000F91EF0923B03E0923A03809134038F5F8B
:10299000809334038394B9E0CB0ED11C0D5F1F4F9D
:1029A0009810A6CF8091380390913903009731F0A9
:1029B0000E94661F10923B0310923A03E114F10447
:1029C00009F4CECA8701000F111F0E0D1F1DC8018B
:1029D0000E94CA1E90933903809338030097B1F088
:1029E000A80170E060E00E940A20F0923B03E092B0
:1029F0003A03B6CA109237036092360398CF10920A
:102A00003503609237035092360393CF10923B0305
:102A100010923A03A5CAFF23A1F0A501B601C30194
:102A20000E94F81F10E000E0C801880F991F800F76
:102A3000911FA70170E060E08C0D9D1D0E940A208F
:102A400015C0A501B301C6010E94F81F442061F31F
:102A5000C801880F991F800F911FA701B4018C0D29
:102A60009D1D0E94EF1FC4010E94661F109221024B
:102A70008FCEF1E47F1609F4F8CA24E4721619F037
:102A800030E4731251C0D6011B961C921B971D9601
:102A90001C921D971C961C921C971A961C921A97B2
:102AA00019961C92199718961C92189717961C92B3
:102AB000179716961C92169715961C9215971496B2
:102AC0001C92149713961C9280EF0E94DC0083E7FF
:102AD0000E94DC00B4E485E47B1282E40E94DC0006
:102AE000862D0E94DC001092400610923F067E0167
:102AF000E9E0EE0EF11CF4E440E07F1241E0BE019B
:102B00006F5F7F4FC6010E944909882309F423C1E2
:102B10008E010F5F1F4FD8018D918D010E94E9003A
:102B20000E151F05C1F7E7CF70FE13C0C6010E9446
:102B300011098BE0889DF001899DF00D1124ED5D58
:102B4000FD4F12821382148215821682178210861C
:102B5000118671FE15C040E06CECC6010E94DD08D4
:102B60008BE0889DF001899DF00D1124ED5DFD4FF6
:102B700012821382148215821682178210861186A1
:102B8000872D8C7309F4ECC92F2D2250330B87E06D
:102B9000829F1001839F300C112453E035942794B9
:102BA0005A95E1F7780132E0E30EF11CFA86E986E6
:102BB0002701B12CA12C27E030E02A143B0419F1A5
:102BC000C50143E0880F991F4A95E1F7B9010E94BA
:102BD0009C1EF701E60FF71F6181A901481B590BE5
:102BE00001C0660F4A95EAF7408150E002C0559552
:102BF00047958A95E2F7462BD2014D932D01BFEF01
:102C0000AB1ABB0ADACF72FE2FC0E8E0AE16B104F1
:102C10000CF4A6C940E065E5C6010E94DD08065F28
:102C20001F4FD7016D917D0140E0C6010E94DD0874
:102C3000E016F106B1F7BBE06B9E9001112490E025
:102C400080E0E985FA854191FA87E987FC01E20F86
:102C5000F31FED5DFD4F428301968830910589F7A2
:102C60007801F8E0AF1AB10873FE3DC024E0A21667
:102C7000B1040CF475C9D7010D911C9111971296EE
:102C8000BC91BB87F701F381FC8724E0E20EF11CC5
:102C900034E0A31AB10874FE0BC044E0A416B104DA
:102CA0000CF45EC964E0E60EF11C84E0A81AB108D9
:102CB00075FE1CC027014A0C5B1C2BE0289DC0013F
:102CC000299D900D1124DC01A35DBD4F5D014E14C3
:102CD0005F0461F0F70161917F01D5014C91C6015C
:102CE0000E94DD08F4CF10E000E0D5CF10161106E9
:102CF0000CF036C980EF0E94DC0083E70E94DC0004
:102D000083E40E94DC00862D0E94DC0010924006C5
:102D100010923F068B850E94E9008C850E94E90095
:102D2000F12CE12C88E0882E912CB12CAA24A394BC
:102D3000C6010E948A088111BA28AA0CB1E08B1A38
:102D40009108B1F78B2D0E94E900EFEFEE1AFE0A11
:102D50000E151F0539F780913F0690914006181611
:102D600019060CF0DBCB80913E0658C91F920F92DA
:102D70000FB60F9211242F933F934F935F936F934E
:102D80007F938F939F93AF93BF93EF93FF9384E4CD
:102D900094E00E943202FF91EF91BF91AF919F9119
:102DA0008F917F916F915F914F913F912F910F90F4
:102DB0000FBE0F901F9018951F920F920FB60F9293
:102DC00011242F938F939F93EF93FF93E0915404DB
:102DD000F09155048081E0915A04F0915B0482FDEA
:102DE0001BC0908180915D048F5F8F7320915E0482
:102DF000821741F0E0915D04F0E0EC5BFB4F958FB2
:102E000080935D04FF91EF919F918F912F910F908F
:102E10000FBE0F901F9018958081F4CF1F920F92D4
:102E20000FB60F9211242F933F938F939F93AF93DD
:102E3000BF938091C2039091C303A091C403B0914A
:102E4000C5033091A70323E0230F2D3758F50196D2
:102E5000A11DB11D2093A7038093C2039093C303C8
:102E6000A093C403B093C5038091A8039091A903D4
:102E7000A091AA03B091AB030196A11DB11D80934F
:102E8000A8039093A903A093AA03B093AB03BF91A7
:102E9000AF919F918F913F912F910F900FBE0F9007
:102EA0001F90189526E8230F0296A11DB11DD2CFC1
:102EB0001F920F920FB60F9211242F933F934F93AF
:102EC0005F936F937F938F939F93AF93BF93EF9392
:102ED000FF938091B900887F803609F44AC0F0F5ED
:102EE000883209F4A7C018F5803109F49BC0B8F402
:102EF000882309F4F9C0883009F494C0FF91EF9158
:102F0000BF91AF919F918F917F916F915F914F9101
:102F10003F912F910F900FBE0F901F901895883101
:102F200009F488C0803251F78093180414C08034AB
:102F300009F49DC040F48033B9F38833F9F68093E7
:102F4000180485ECB0C0803509F485C0883509F4D3
:102F500096C0883499F60E94500FD0CF883909F472
:102F60008CC038F5883729F050F4883611F0803756
:102F700029F683E080931A041092A60357C088387C
:102F800009F47BC0803919F0803809F0B7CF8091FF
:102F9000A603803208F071C0E091A60381E08E0F95
:102FA0008093A6038091BB00F0E0EA57FC4F80833A
:102FB0003DC0803B39F0E0F4803A09F479C0883AAA
:102FC00009F09CCF84E080931A041092830310923E
:102FD0008203E0918003F09181030995809182033F
:102FE00081110FC081E0809382031092600309C0B9
:102FF000803C09F4A6CF883C09F4A3CF883B09F0B4
:103000007DCFE091830381E08E0F80938303F0E016
:10301000E05AFC4F80818093BB00909183038091A4
:10302000820329C08091F5038093BB0085EC8093D7
:10303000BC0064CF9091170480911604981758F53E
:10304000E091170481E08E0F80931704F0E0EA50BE
:10305000FC4F8081E9CFE091170481E08E0F8093CF
:1030600017048091BB00F0E0EA50FC4F8083909100
:103070001704809116049817C8F285E8D8CFE0911C
:10308000170481E08E0F809317048091BB00F0E05D
:10309000EA50FC4F80838091190481115CCF81E05C
:1030A0008093F40384EA8093BC0010921A0426CF24
:1030B00085EC8093BC0010921A048091A6038032A4
:1030C00030F4E091A603F0E0EA57FC4F10826091E3
:1030D000A60370E0E0918403F091850386E893E015
:1030E00009951092A6030ACF1092180434CF1F92AC
:1030F0000F920FB60F9211242F933F934F935F932C
:103100006F937F938F939F93AF93BF93CF93DF93EF
:10311000EF93FF9380913C03C0915905D0E087FF66
:1031200024C0109285001092840080913C038F5F30
:1031300080933C0380913C03082E000C990B8C1764
:103140009D0724F480913C038C30C4F1809184006D
:1031500090918500049680349C4908F47AC080914F
:10316000840090918500049676C080913C03082EDF
:10317000000C990B8C179D07C4F6E0913C038E2F31
:10318000EE0F990BFC01EE0FFF1FE80FF91FEB5C30
:10319000FA4F808186FFC9CFE0913C038E2FEE0F5E
:1031A000990BFC01EE0FFF1FE80FF91FEB5CFA4FC4
:1031B000808160E08F730E94C102B7CF20918400AC
:1031C00030918500E0913C038E2FEE0F990BFC01AE
:1031D000EE0FFF1FE80FF91FEB5CFA4F8181928120
:1031E000820F931F9093890080938800E0913C03A5
:1031F0008E2FEE0F990BFC01EE0FFF1FE80FF91F4A
:10320000EB5CFA4F808186FF11C0E0913C038E2F6A
:10321000EE0F990BFC01EE0FFF1FE80FF91FEB5C9F
:10322000FA4F808161E08F730E94C102FF91EF919C
:10323000DF91CF91BF91AF919F918F917F916F91CE
:103240005F914F913F912F910F900FBE0F901F9064
:10325000189580E49CE990938900809388008FEF13
:1032600080933C03E3CF109247041092460488EE0B
:1032700093E0A0E0B0E08093480490934904A093C9
:103280004A04B0934B042DE031E030934504209381
:10329000440425EC30E0309351042093500424EC96
:1032A00030E0309353042093520420EC30E030930C
:1032B00055042093540421EC30E0309357042093BC
:1032C000560422EC30E0309359042093580426EC45
:1032D00030E030935B0420935A0410925D04109206
:1032E0005E0410925F04109260041092E404109245
:1032F000E3048093E5049093E604A093E704B0937D
:10330000E8048FE191E09093E2048093E104EDEE14
:10331000F4E085E395E011821082138212823996DF
:103320008E179F07C1F7EAE5F5E02FEF48EB5BE06A
:10333000809159058C3008F0BBC091E0980F9093B4
:103340005905808390E0DC01AA0FBB1FA80FB91FAD
:10335000AB5CBA4F12965C934E931197339685E00F
:10336000EE37F80729F78EE795E01092BF05109227
:10337000BE059093C2058093C10520E430E03093F0
:10338000C4052093C3051092C5051092C60510927E
:10339000C8051092C7051092C9051092CB0510926E
:1033A000CA051092CD051092CC051092CF0510924F
:1033B000CE051092D1051092D0051092D30510922F
:1033C000D2051092D5051092D4051092D70510920F
:1033D000D6051092DD051092DC051092DF051092E3
:1033E000DE051092E1051092E0051092E3051092BF
:1033F000E2051092F1051092F0051092C0051092AE
:10340000FE05109200061092FF0510923D062CE872
:1034100030E03093E5052093E40526E930E0309371
:10342000E7052093E60520EA30E03093E905209394
:10343000E8052AEA30E03093EB052093EA0524EB17
:1034400030E03093ED052093EC052EEB30E0309327
:10345000EF052093EE0528EC30E03093F305209340
:10346000F20529EC30E03093F5052093F40525E2D0
:103470003CE03093F7052093F6059093D9058093AF
:10348000D8052DEA31E03093F9052093F8059093A3
:10349000DB058093DA0584ED90E09093FB05809343
:1034A000FA0510923E061092400610923F060895CB
:1034B000208354CF789484B5826084BD84B58160C4
:1034C00084BD85B5826085BD85B5816085BD8091EF
:1034D0006E00816080936E00109281008091810067
:1034E000826080938100809181008160809381005F
:1034F000809180008160809380008091B100846021
:103500008093B1008091B00081608093B000809181
:103510007A00846080937A0080917A008260809340
:103520007A0080917A00816080937A0080917A009D
:10353000806880937A001092C10088E18093FE0534
:103540008091FF05909100060E94661FC091FE05C4
:10355000D0E0CE0101960E94CA1E9093000680938F
:10356000FF05FC01EC0FFD1F108212E0DC011C9333
:1035700025E011962C93AE01425051096CEB71E09D
:1035800002960E9411208CEF96E09093B7038093EF
:10359000B60380E596E09093B5038093B4038AEC7C
:1035A0009AE09093B3038093B20386E89BE09093F4
:1035B000B1038093B0038EEA9DE09093AF038093B4
:1035C000AE038AE198E09093AD038093AC0388E862
:1035D0009FE09093B9038093B80386E09FE09093B7
:1035E000BB038093BA03E0915404F0915504108317
:1035F000E0915404F09155041082E0915004F09150
:1036000051041082E0915204F091530480E18083D0
:1036100010925C04E0915804F091590486E0808394
:10362000E0915604F0915704808180618083E0919D
:103630005604F0915704808188608083E09156049D
:10364000F0915704808180688083E0915604F09166
:10365000570480818F7D808380913D0681114FC00A
:1036600061E08DE00E940D0362ED70E080E090E08B
:103670000E94830361E08DE00E94C10268E270E075
:1036800080E090E00E94830360E08DE00E94C10230
:1036900062ED70E080E090E00E94830361E08DE0E5
:1036A0000E94C10268E270E080E090E00E94830323
:1036B00060E08DE00E94C1026AEF70E080E090E07F
:1036C0000E948303C5E062ED70E080E090E00E941C
:1036D000830361E08DE00E94C10268E270E080E057
:1036E00090E00E94830360E08DE00E94C102C1501F
:1036F00051F76DE770E080E090E00E94830384E47E
:1037000094E09093FD058093FC059093BF05809312
:10371000BE058EEB95E00E9434018EE795E00E9495
:10372000B10B0E94060F0E943E0625E0D22EC0E09B
:10373000D0E0CC24C39402E010E0EE24E394F12C1A
:103740008091BF03882349F069B18091BC0368234D
:103750006C7F40E080E00E94440B8091C00388238E
:1037600079F063B186B16F73B0E48B9FC00111240F
:10377000682B8091BD03682340E081E00E94440BE8
:103780008091C103882359F066B18091BE038F7088
:1037900066956695682340E082E00E94440B809124
:1037A000FC059091FD05DC01ED91FC910084F18513
:1037B000E02D0995892B09F4CEC18091FC059091EB
:1037C000FD05DC01ED91FC910284F385E02D099566
:1037D0009C018F3F980719F3982F8091C905882382
:1037E00009F492C0973F09F07EC01092C905A091DC
:1037F000C105B091C2056C916137C1F1693709F01B
:103800005CC0E091F605F091F705309741F28091A8
:10381000CA059091CB058330910560F430E020E03B
:1038200050E040E070E060E08091D8059091D905CB
:103830000995B5CFBD016D5F7F4F03970E948E0143
:10384000BC016D5F7F4F80E00E945E01E091C10589
:10385000F091C2059F012D5F3F4F428150E0618191
:1038600070E0E091F605F091F705DECF8091F2056A
:103870009091F305892B09F492CFBD016F5F7F4FC3
:103880008091CA059091CB0501970E948E01BC01E1
:103890006F5F7F4F80E00E945E016091C105709173
:1038A000C2056F5F7F4FE091F205F091F3058091C3
:1038B000DE059091DF05099572CFE091F405F09156
:1038C000F505309709F46BCF9D012F5F3F4F409175
:1038D000CA055091CB05415051098091E005909166
:1038E000E10509955CCF6091CA057091CB05822FE7
:1038F0000E945E018091CA059091CB05019690933C
:10390000CB058093CA054BCF6091C7057091C80560
:103910006115710509F4B1C027FDAFC0615071098F
:103920007093C8056093C705822F0E945E01809145
:10393000C7059091C805892B09F031CF8091C50545
:10394000882309F42CCF803D09F483C040F48039EA
:1039500049F1803C09F469C01092C50520CF843F2D
:10396000E1F1853F09F44DC0803EB1F7E091E405F7
:10397000F091E505309781F3A091C105B091C205A2
:103980004C9120E8429FC001112411964C91480FA0
:10399000592F511D6091C6058091CC059091CD05A0
:1039A0000995DACFE091E605F091E7053097A1F2AD
:1039B000A091C105B091C2054C9120E8429FC00181
:1039C000112411964C91480F592F511D6091C60535
:1039D0008091CE059091CF05E3CFE091EC05F09179
:1039E000ED05309709F4B8CFA091C105B091C2059B
:1039F0004C9150E011966C918091D4059091D50531
:103A0000CFCFE091EE05F091EF05309709F4A4CF08
:103A1000A091C105B091C2054C9150E011966C91F6
:103A20008091D6059091D705BBCFE091E805F09144
:103A3000E905309709F490CFA091C105B091C20576
:103A40004C9150E06091C6058091D0059091D105D0
:103A5000A7CFE091EA05F091EB05309709F47CCF10
:103A6000A091C105B091C2054C9150E06091C6058E
:103A70008091D2059091D30593CF903F30F4822F5F
:103A80008F708093C605922F907F903FF1F190F454
:103A9000903CB1F150F4903909F081CE1093C805F3
:103AA0000093C7059093C5057ACE903D49F1903EAD
:103AB000A9F375CE993F09F442C028F48CE0890F30
:103AC000823060F36CCE9F3F09F069CE1092C8053A
:103AD0001092C7051092C5051092C60590E080E0CF
:103AE0002091C3053091C40582179307A8F4E09193
:103AF000C105F091C205E80FF91F10820196F0CFC1
:103B0000F092C805E092C705CDCFC092C9051092CA
:103B1000CB051092CA0543CE1092C9051092CB0571
:103B20001092CA05E091FA05F091FB058091E2053B
:103B30009091E305309709F432CE099530CEE091AB
:103B4000F805F091F905309709F429CE8091DA054E
:103B50009091DB05F2CF8FB7F8948090C2039090DC
:103B6000C303A090C403B090C5038FBF8091F0033E
:103B70009091F103A091F203B091F3034091010100
:103B80005091020170E060E0881A990AAA0ABB0A03
:103B9000481559056A057B0508F054C0840F951F28
:103BA000A61FB71F8093F0039093F103A093F20335
:103BB000B093F3038EE7882E85E0982E92EFB92E0E
:103BC00085E08B15C8F0F401ED57FF4F80818230FE
:103BD00099F48091EE039091EF030B2C02C0959520
:103BE00087950A94E2F780FF07C08B2D0E94490356
:103BF000BC018B2D0E946A0AB394AFEF8A1A9A0A0D
:103C0000B6E0BB12DDCF8091000187FD1BC0B12C57
:103C10002B2D30E080910001082E000C990B8217AB
:103C2000930784F0D29EF001D39EF00D1124EA5345
:103C3000FC4F618172812481438180810E94360C16
:103C4000B394E6CF209709F47BCD0E941E0288230F
:103C500009F476CD0E94000073CD052E97FB1EF46B
:103C600000940E94441E57FD07D00E945F1E07FC6F
:103C700003D04EF40C94441E5095409530952195F8
:103C80003F4F4F4F5F4F0895909580957095619588
:103C90007F4F8F4F9F4F08950E94811EA59F900DCB
:103CA000B49F900DA49F800D911D11240895B7FF1E
:103CB0000C944C1E0E944C1E821B930B0895A1E293
:103CC0001A2EAA1BBB1BFD010DC0AA1FBB1FEE1F96
:103CD000FF1FA217B307E407F50720F0A21BB30BE1
:103CE000E40BF50B661F771F881F991F1A9469F75D
:103CF00060957095809590959B01AC01BD01CF01B9
:103D00000895A29FB001B39FC001A39F700D811DB4
:103D10001124911DB29F700D811D1124911D0895D4
:103D2000991B79E004C0991F961708F0961B881F0D
:103D30007A95C9F78095089597FB072E16F400949D
:103D400007D077FD09D00E94B61E07FC05D03EF4CF
:103D5000909581959F4F0895709561957F4F089537
:103D6000EE0FFF1F0590F491E02D0994AA1BBB1BD9
:103D700051E107C0AA1FBB1FA617B70710F0A61B6B
:103D8000B70B881F991F5A95A9F780959095BC018C
:103D9000CD0108950F931F93CF93DF938230910548
:103DA00010F482E090E0E0914306F091440630E0A8
:103DB00020E0B0E0A0E0309799F42115310509F436
:103DC0004AC0281B390B24303105D8F58A819B81E4
:103DD0006115710589F1FB0193838283FE0111C096
:103DE000408151810281138148175907E0F048173B
:103DF000590799F4109761F012960C931297139645
:103E00001C933296CF01DF91CF911F910F910895AE
:103E10000093430610934406F4CF2115310551F069
:103E20004217530738F0A901DB019A01BD01DF01F8
:103E3000F801C1CFEF01F9CF909344068093430678
:103E4000CDCFFE01E20FF31F8193919322503109F0
:103E500039832883D7CF2091410630914206232B06
:103E600041F42091050130910601309342062093E0
:103E7000410620910301309104012115310541F4DF
:103E80002DB73EB74091070150910801241B350B17
:103E9000E0914106F0914206E217F307A0F42E1BD1
:103EA0003F0B2817390778F0AC014E5F5F4F24179E
:103EB000350748F04E0F5F1F50934206409341066E
:103EC000819391939FCFF0E0E0E09CCFCF93DF937D
:103ED0000097E9F0FC01329713821282A091430609
:103EE000B0914406ED0130E020E01097A1F420816C
:103EF0003181820F931F209141063091420628178D
:103F0000390709F061C0F0934206E0934106DF9162
:103F1000CF910895EA01CE17DF07E8F54A815B816A
:103F20009E0141155105B1F7E901FB83EA834991EF
:103F30005991C40FD51FEC17FD0761F48081918161
:103F40000296840F951FE90199838883828193816A
:103F50009B838A83F0E0E0E012968D919C91139709
:103F60000097B9F52D913C911197CD010296820FE2
:103F7000931F20914106309142062817390739F6E0
:103F8000309751F51092440610924306B0934206C2
:103F9000A0934106BCCFD383C28340815181840F5B
:103FA000951FC817D90761F44E5F5F4F88819981CB
:103FB000480F591F518340838A819B819383828359
:103FC0002115310509F0B0CFF0934406E093430684
:103FD0009ECFFD01DC01C0CF13821282D7CFFB013F
:103FE000DC0102C001900D9241505040D8F7089575
:103FF0006817790768F4FB01DC01E40FF51FA40FD3
:10400000B51F02C002900E9241505040D8F708955B
:104010000C94EF1FDC0101C06D9341505040E0F75C
:104020000895FB01DC014150504048F001900D9291
:104030000020C9F701C01D9241505040E0F708959B
:10404000F894FFCFFF130000004506800000000039
:10405000005402B401E101A1021202F001040200C5
:104060000000006505380594050E0531051E050F95
:10407000054932433A20546F6F206D616E7920629A
:104080007974657320726563656976656400493289
:10409000433A20546F6F20666577206279746573A8
:1040A000207265636569766564004D61782073658B
:1040B00072766F7320617474616368656400556E15
:1040C0006B6E6F776E2070696E206D6F6465003166
:1040D000302D6269742061646472657373696E6700
:1040E000206E6F7420737570706F727465640074E5
:1040F0006F6F206D616E79207175657269657300EF
:104100006E6F64655F706978656C5F6669726D611A
:0841100074612E696E6F00005E
:107E0000112484B714BE81FFF0D085E080938100F7
:107E100082E08093C00088E18093C10086E0809377
:107E2000C20080E18093C4008EE0C9D0259A86E02C
:107E300020E33CEF91E0309385002093840096BBD3
:107E4000B09BFECF1D9AA8958150A9F7CC24DD24C4
:107E500088248394B5E0AB2EA1E19A2EF3E0BF2EE7
:107E6000A2D0813461F49FD0082FAFD0023811F036
:107E7000013811F484E001C083E08DD089C08234E0
:107E800011F484E103C0853419F485E0A6D080C0E4
:107E9000853579F488D0E82EFF2485D0082F10E0AE
:107EA000102F00270E291F29000F111F8ED06801E7
:107EB0006FC0863521F484E090D080E0DECF843638
:107EC00009F040C070D06FD0082F6DD080E0C81688
:107ED00080E7D80618F4F601B7BEE895C0E0D1E017
:107EE00062D089930C17E1F7F0E0CF16F0E7DF06D8
:107EF00018F0F601B7BEE89568D007B600FCFDCFD4
:107F0000A601A0E0B1E02C9130E011968C91119780
:107F100090E0982F8827822B932B1296FA010C0160
:107F200087BEE89511244E5F5F4FF1E0A038BF0790
:107F300051F7F601A7BEE89507B600FCFDCF97BE46
:107F4000E89526C08437B1F42ED02DD0F82E2BD052
:107F50003CD0F601EF2C8F010F5F1F4F84911BD097
:107F6000EA94F801C1F70894C11CD11CFA94CF0C13
:107F7000D11C0EC0853739F428D08EE10CD085E9AC
:107F80000AD08FE07ACF813511F488E018D01DD067
:107F900080E101D065CF982F8091C00085FFFCCF94
:107FA0009093C60008958091C00087FFFCCF809118
:107FB000C00084FD01C0A8958091C6000895E0E648
:107FC000F0E098E1908380830895EDDF803219F02E
:107FD00088E0F5DFFFCF84E1DECF1F93182FE3DFCA
:107FE0001150E9F7F2DF1F91089580E0E8DFEE27F6
:047FF000FF270994CA
:027FFE00040479
:00000001FF
